{
  "contractName": "MoneyBox",
  "abi": [
    {
      "inputs": [],
      "name": "owner",
      "outputs": [
        {
          "internalType": "address",
          "name": "",
          "type": "address"
        }
      ],
      "stateMutability": "view",
      "type": "function",
      "constant": true
    },
    {
      "inputs": [],
      "name": "totalMoneyInBox",
      "outputs": [
        {
          "internalType": "uint256",
          "name": "",
          "type": "uint256"
        }
      ],
      "stateMutability": "view",
      "type": "function",
      "constant": true
    },
    {
      "inputs": [
        {
          "internalType": "uint256",
          "name": "money",
          "type": "uint256"
        },
        {
          "internalType": "string",
          "name": "_operation",
          "type": "string"
        }
      ],
      "name": "setCompleted",
      "outputs": [
        {
          "internalType": "bool",
          "name": "",
          "type": "bool"
        }
      ],
      "stateMutability": "nonpayable",
      "type": "function"
    },
    {
      "inputs": [],
      "name": "viewOwnerAddress",
      "outputs": [
        {
          "internalType": "address",
          "name": "",
          "type": "address"
        }
      ],
      "stateMutability": "view",
      "type": "function",
      "constant": true
    },
    {
      "inputs": [],
      "name": "viewTotalCash",
      "outputs": [
        {
          "internalType": "uint256",
          "name": "",
          "type": "uint256"
        }
      ],
      "stateMutability": "view",
      "type": "function",
      "constant": true
    }
  ],
  "bytecode": "0x6080604052336000806101000a81548173ffffffffffffffffffffffffffffffffffffffff021916908373ffffffffffffffffffffffffffffffffffffffff160217905550600060015534801561005557600080fd5b506104fc806100656000396000f3fe608060405234801561001057600080fd5b50600436106100575760003560e01c8063230117761461005c578063496bb3281461007a578063624f4e94146100ae5780638da5cb5b146100cc578063b257d15a14610100575b600080fd5b6100646101db565b6040518082815260200191505060405180910390f35b6100826101e5565b604051808273ffffffffffffffffffffffffffffffffffffffff16815260200191505060405180910390f35b6100b661020e565b6040518082815260200191505060405180910390f35b6100d4610214565b604051808273ffffffffffffffffffffffffffffffffffffffff16815260200191505060405180910390f35b6101c36004803603604081101561011657600080fd5b81019080803590602001909291908035906020019064010000000081111561013d57600080fd5b82018360208201111561014f57600080fd5b8035906020019184600183028401116401000000008311171561017157600080fd5b91908080601f016020809104026020016040519081016040528093929190818152602001838380828437600081840152601f19601f820116905080830192505050505050509192919290505050610238565b60405180821515815260200191505060405180910390f35b6000600154905090565b60008060009054906101000a900473ffffffffffffffffffffffffffffffffffffffff16905090565b60015481565b60008054906101000a900473ffffffffffffffffffffffffffffffffffffffff1681565b60008060009054906101000a900473ffffffffffffffffffffffffffffffffffffffff1673ffffffffffffffffffffffffffffffffffffffff163373ffffffffffffffffffffffffffffffffffffffff16146102df576040517f08c379a00000000000000000000000000000000000000000000000000000000081526004018080602001828103825260338152602001806104946033913960400191505060405180910390fd5b61031e826040518060400160405280600181526020017f2b000000000000000000000000000000000000000000000000000000000000008152506103a4565b1561033c57826001600082825401925050819055506001905061039e565b61037b826040518060400160405280600181526020017f2d000000000000000000000000000000000000000000000000000000000000008152506103a4565b1561039957826001600082825403925050819055506001905061039e565b600090505b92915050565b6000816040516020018082805190602001908083835b602083106103dd57805182526020820191506020810190506020830392506103ba565b6001836020036101000a03801982511681845116808217855250505050505090500191505060405160208183030381529060405280519060200120836040516020018082805190602001908083835b6020831061044f578051825260208201915060208101905060208303925061042c565b6001836020036101000a038019825116818451168082178552505050505050905001915050604051602081830303815290604052805190602001201490509291505056fe546869732066756e6374696f6e206973207265737472696374656420746f2074686520636f6e74726163742773206f776e6572a2646970667358221220db2f74e26af2731a13225a4b2991f1246cbbe83f06a10298391f3dc52c79856d64736f6c634300060c0033",
  "immutableReferences": {},
  "source": "// SPDX-License-Identifier: MIT\npragma solidity >=0.4.22 <0.8.0;\n\ncontract MoneyBox {\n  address public owner = msg.sender;\n  uint public totalMoneyInBox = 0;\n\n  modifier restricted() {\n    require(\n      msg.sender == owner,\n      'This function is restricted to the contract\\'s owner'\n    );\n    _;\n  }\n\n  function setCompleted(uint money, string memory _operation) public restricted returns (bool) {\n    if (compareStrings(_operation, string('+'))) {\n      totalMoneyInBox += money;\n      return true;\n    }\n    else if (compareStrings(_operation, string('-'))) {\n      totalMoneyInBox -= money;\n      return true;\n    } else {\n      return false;\n    }\n  }\n\n  function viewOwnerAddress() public view returns (address) {\n    return owner;\n  }\n\n  function viewTotalCash() public view returns (uint) {\n    return totalMoneyInBox;\n  }\n  function compareStrings(string memory a, string memory b) private view returns (bool) {\n    return (keccak256(abi.encodePacked((a))) == keccak256(abi.encodePacked((b))));\n  }\n}\n",
  "sourcePath": "/Users/vlad/Downloads/Example contract/contracts/MoneyBox.sol",
  "compiler": {
    "name": "solc",
    "version": "0.6.12+commit.27d51765.Emscripten.clang"
  },
  "schemaVersion": "3.3.2",
  "updatedAt": "2021-01-31T17:08:46.579Z",
  "networkType": "ethereum",
  "devdoc": {
    "kind": "dev",
    "methods": {},
    "version": 1
  },
  "userdoc": {
    "kind": "user",
    "methods": {},
    "version": 1
  }
}